:1000000009C021C020C01FC01EC01DC0B3C01BC07E
:100010001AC019C011241FBECFE9CDBF10E0A0E661
:10002000B0E0E6E0F2E002C005900D92AA38B10718
:10003000D9F720E0AAE8B0E001C01D92A039B207CC
:10004000E1F777D0DEC0DCCF039731F026E02A95C8
:10005000F1F700C00397D1F70895CF93DF93109283
:100060008B0010928A0080918A0090918B000997F2
:100070000CF05CC0C1E0D0E0E0918A00F0918B0010
:10008000EE0FFF1FE858FF4F60916400709165000C
:1000900080819181A5D090936100809360008091D0
:1000A0008A0090918B00059761F080918A00909171
:1000B0008B00069731F080918A0090918B00892BFC
:1000C00021F4D0938D00C0938C00809160009091BA
:1000D0006100BADFE0918A00F0918B00EE0FFF1F04
:1000E000EA59FF4F609164007091650080819181B1
:1000F00077D0909361008093600010928D001092F1
:100100008C0080916000909161009EDF80918A0058
:1001100090918B00019690938B0080938A00809140
:100120008A0090918B0009970CF4A6CFDF91CF91B4
:10013000089588E187BB80E88FBF81E083BF84E0BA
:1001400089BF12BE8DE486BF789486B3827090E03A
:1001500090938F0080938E0080918E0090918F00FD
:10016000029799F7C39A79DFC39810928F00109283
:100170008E00EBCF1F920F920FB60F9211248F9328
:100180009F93F8948091620090916300019781F4AD
:1001900080918C0090918D00019709F4C49A80E3BE
:1001A00086BF82E090E090936300809362000FC06E
:1001B0008091620090916300029749F4C49880E6B0
:1001C00086BF81E090E0909363008093620012BE4E
:1001D00078949F918F910F900FBE0F901F9018955C
:1001E0000024552704C0080E591F880F991F009737
:1001F00029F076956795B8F37105B9F7802D952F9D
:060200000895F894FFCF01
:100206005802010032009C000C009C000C009C006F
:100216000C009C000C009C0018000600060006005E
:0A0226000C000C0006000C000C0098
:00000001FF
