S027000049522050554C53452049414620524543454956455220415454494E593133412E73726563B6
S113000009C021C074C01FC01EC01DC01CC01BC0BD
S11300101AC019C011241FBECFE9CDBF10E0A0E65D
S1130020B0E0E8EAF1E002C005900D92A236B10713
S1130030D9F720E0A2E6B0E001C01D92AE36B207C7
S1130040E1F702D0AFC0DCCF8CE187BB8FB780680B
S11300508FBF85B785BF80E28BBF83E085BB8FB53B
S11300608FBD83B7856083BF78948091620090913F
S11300706300019690936300809362008FEA94E09A
S11300800197F1F700C00000809164009091650031
S1130090019799F488B3886188BB80EF90E0019759
S11300A0F1F788B3877E88BB1092630010926200D8
S11300B01092650010926400D8CF209162003091B4
S11300C0630080916000909161002817390769F6F8
S11300D088B3886188BB80EF90E00197F1F788B31B
S11300E0877E88BB1092630010926200BECF1F927D
S11300F00F920FB60F9211242F933F938F939F93D8
S113010026B3822F817090E090936D0080936C00F1
S11301100097F1F480916A0090916B00892BC9F5E6
S113012012BE82B790E090936900809368001092A9
S113013067001092660081E090E090936B008093DA
S11301406A0080916C0090916D00019749F021C084
S11301500197F9F480916A0090916B000197C9F4BA
S113016082B790E02091680030916900821B930B64
S1130170909367008093660010926B0010926A005F
S11301804497079730F481E090E090936500809362
S113019064009F918F913F912F910F900FBE0F900C
S10B01A01F901895F894FFCF9D
S10501A8E80366
S9030000FC
