S022000049522050554C534520434F554E5445522041544D4547413332382E7372656312
S11300000C9434000C9451000C9451000C94C200D4
S11300100C9451000C9451000C9451000C94510018
S11300200C9451000C9451000C9451000C94510008
S11300300C9451000C9451000C9451000C945100F8
S11300400C9451000C9451000C9451000C945100E8
S11300500C9451000C9451000C9451000C945100D8
S11300600C9451000C94510011241FBECFEFD8E022
S1130070DEBFCDBF11E0A0E0B1E0E2EEF3E002C0EC
S113008005900D92A031B107D9F721E0A0E1B1E0CC
S113009001C01D92A832B207E1F70E94AC000C9493
S11300A0EF010C9400009093C5008093C40088E194
S11300B08093C1008EE08093C2000895E0ECF0E0EC
S11300C0908195FFFDCF8093C6000895CF93DF9371
S11300D0EC018881882331F021960E945E00899189
S11300E08111FBCFDF91CF910895809112019091FE
S11300F01301029721F481E38093000103C080E39C
S1130100809300018091100190911101029721F4D4
S113011081E38093020103C080E38093020180E0C5
S113012091E00E9466000895CF93DF93EC0186E08E
S113013091E00E9466004AE060E271E0CE010E9414
S1130140BA0180E291E00E946600809105010E945C
S11301505E00DF91CF91089588E084B987E690E04E
S11301600E9453008FB780688FBF81E080936B003B
S1130170809368008BBB84B584BD85B5846085BDE0
S11301807894FFCF1F920F920FB60F9211242F93E2
S11301903F934F935F936F937F938F939F93AF930B
S11301A0BF93EF93FF9323B1822F817090E09093DC
S11301B01F0180931E01892BC1F580911C01909130
S11301C01D01892B09F0C5C086B590E02091160168
S11301D030911701821B930B9093150180931401A6
S11301E016BC86B590E090931B0180931A0110927F
S11301F019011092180181E090E090931D01809301
S11302001C018091120190911301181619060CF02B
S11302108FC08091140190911501C2974F9708F4F3
S113022087C0109213011092120180911E019091C7
S11302301F01019709F08DC080911C0190911D014F
S1130240019709F086C086B590E020911A0130919B
S11302501B01821B930B9093190180931801109238
S11302601D0110921C0126B530E030931701209334
S11302701601893791050CF463C0809105010E9431
S11302805E00809112019091130118161906E4F092
S113029080911801909119019C0128513109213153
S11302A0310538F481E090E09093130180931201BA
S11302B050C0C2974F9708F04CC082E090E09093F2
S11302C013018093120145C0809110019091110196
S11302D018161906F4F180911801909119019C01E6
S11302E0285131092131310548F481E090E090939F
S11302F01101809310010E94750011C09C012253CA
S113030031092F31310548F482E090E090931101D6
S1130310809310010E94750002C00E949400109204
S1130320130110921201109211011092100111C0C8
S113033080911E0190911F01019709F484CF09C097
S11303408091120190911301181619060CF4BCCF78
S11303509FCFFF91EF91BF91AF919F918F917F912B
S11303606F915F914F913F912F910F900FBE0F901E
S11303701F901895BB274A3031F4992322F4BDE22B
S1130380909581959F4F0C94C601BB27FB0155277F
S1130390AA27880F991FAA1FA41710F0A41B8395DE
S11303A05051B9F7A05DAA3308F0A95DA193009755
S11303B079F7B111B1931192CB010C94DF01DC01F7
S11303C0FC01672F71917723E1F7329704C07C9188
S11303D06D9370836291AE17BF07C8F30895F894C4
S10503E0FFCF49
S11303E2355F350A000A0A204572726F723A20009C
S9030000FC
