:100000000EC028C06BC026C025C024C023C022C09B
:1000100021C020C01FC01EC01DC01CC01BC0112499
:100020001FBECFE5D2E0DEBFCDBF10E0A0E6B0E05E
:10003000ECEBF1E002C005900D92A036B107D9F7C4
:1000400020E0A0E6B0E001C01D92A037B207E1F7C2
:100050000CD0B2C0D5CF83B7836083BF8AB583602D
:100060008ABD8AB5806A8ABD089582E087BB8FB752
:1000700080688FBF85B785BF80E28BBF81E085BB7D
:1000800080B78B6080BF7894E6DF809164009091A8
:100090006500909361008093600080916000909172
:1000A0006100880F991F9093630080936200809194
:1000B00062009091630088BD109265001092640008
:1000C00010926100109260002FEF89E698E12150B4
:1000D00080409040E1F700C00000D7CF1F920F9200
:1000E0000FB60F9211242F933F938F939F9326B3B4
:1000F000822F817090E090936F0080936E00892B27
:1001000029F580916C0090916D00892B09F04BC00E
:100110001FBC80916C0090916D00892BB9F48FB554
:1001200090E090936B0080936A00109269001092A7
:10013000680081E090E090936D0080936C00809166
:100140006E0090916F00019771F50CC080916E0068
:1001500090916F00019739F580916C0090916D003E
:100160000197E9F48FB590E020916A0030916B001F
:10017000821B930B909369008093680010926D002E
:1001800010926C004497459770F4809164009091B0
:1001900065000196909365008093640004C01092FE
:1001A0006700109266009F918F913F912F910F9061
:0C01B0000FBE0F901F901895F894FFCF21
:00000001FF
